{
  "_format": "hh-sol-artifact-1",
  "contractName": "Tip",
  "sourceName": "contracts/Tip.sol",
  "abi": [
    {
      "inputs": [],
      "stateMutability": "nonpayable",
      "type": "constructor"
    },
    {
      "anonymous": false,
      "inputs": [
        {
          "indexed": true,
          "internalType": "address",
          "name": "from",
          "type": "address"
        },
        {
          "indexed": false,
          "internalType": "uint256",
          "name": "timestamp",
          "type": "uint256"
        },
        {
          "indexed": false,
          "internalType": "string",
          "name": "name",
          "type": "string"
        },
        {
          "indexed": false,
          "internalType": "string",
          "name": "message",
          "type": "string"
        },
        {
          "indexed": false,
          "internalType": "uint256",
          "name": "amount",
          "type": "uint256"
        }
      ],
      "name": "NewMemo",
      "type": "event"
    },
    {
      "anonymous": false,
      "inputs": [
        {
          "indexed": false,
          "internalType": "address",
          "name": "from",
          "type": "address"
        },
        {
          "indexed": false,
          "internalType": "uint256",
          "name": "amount",
          "type": "uint256"
        }
      ],
      "name": "UnknownPay",
      "type": "event"
    },
    {
      "stateMutability": "payable",
      "type": "fallback"
    },
    {
      "inputs": [
        {
          "internalType": "string",
          "name": "_name",
          "type": "string"
        },
        {
          "internalType": "string",
          "name": "_message",
          "type": "string"
        }
      ],
      "name": "buyCoffee",
      "outputs": [],
      "stateMutability": "payable",
      "type": "function"
    },
    {
      "inputs": [],
      "name": "getBalance",
      "outputs": [
        {
          "internalType": "uint256",
          "name": "",
          "type": "uint256"
        }
      ],
      "stateMutability": "view",
      "type": "function"
    },
    {
      "inputs": [],
      "name": "getMemos",
      "outputs": [
        {
          "components": [
            {
              "internalType": "address",
              "name": "from",
              "type": "address"
            },
            {
              "internalType": "uint256",
              "name": "timestamp",
              "type": "uint256"
            },
            {
              "internalType": "string",
              "name": "name",
              "type": "string"
            },
            {
              "internalType": "string",
              "name": "message",
              "type": "string"
            },
            {
              "internalType": "uint256",
              "name": "amount",
              "type": "uint256"
            }
          ],
          "internalType": "struct Tip.Memo[]",
          "name": "",
          "type": "tuple[]"
        }
      ],
      "stateMutability": "view",
      "type": "function"
    },
    {
      "inputs": [],
      "name": "withdrawTips",
      "outputs": [],
      "stateMutability": "nonpayable",
      "type": "function"
    },
    {
      "stateMutability": "payable",
      "type": "receive"
    }
  ],
  "bytecode": "0x608060405234801561001057600080fd5b50336000806101000a81548173ffffffffffffffffffffffffffffffffffffffff021916908373ffffffffffffffffffffffffffffffffffffffff160217905550611053806100606000396000f3fe6080604052600436106100435760003560e01c806312065fe014610085578063204206e1146100b05780633aaa74b2146100cc578063865c5172146100e357610083565b36610083577f530e304f803fb71aba1a96f37bfe150d360d809ca524d34c4de06f03ecfb470d3334604051610079929190610698565b60405180910390a1005b005b34801561009157600080fd5b5061009a61010e565b6040516100a791906106c1565b60405180910390f35b6100ca60048036038101906100c59190610836565b610116565b005b3480156100d857600080fd5b506100e16102a2565b005b3480156100ef57600080fd5b506100f8610451565b6040516101059190610a8a565b60405180910390f35b600047905090565b60003411610159576040517f08c379a000000000000000000000000000000000000000000000000000000000815260040161015090610b09565b60405180910390fd5b60016040518060a001604052803373ffffffffffffffffffffffffffffffffffffffff16815260200142815260200184815260200183815260200134815250908060018154018082558091505060019003906000526020600020906005020160009091909190915060008201518160000160006101000a81548173ffffffffffffffffffffffffffffffffffffffff021916908373ffffffffffffffffffffffffffffffffffffffff1602179055506020820151816001015560408201518160020190816102279190610d35565b50606082015181600301908161023d9190610d35565b506080820151816004015550503373ffffffffffffffffffffffffffffffffffffffff167fe6609e3b36bf3d0e12aa4c5b518055c81016d4f091e4fa2be01ff5f2690512bb428484346040516102969493929190610e40565b60405180910390a25050565b60008054906101000a900473ffffffffffffffffffffffffffffffffffffffff1673ffffffffffffffffffffffffffffffffffffffff163373ffffffffffffffffffffffffffffffffffffffff1614610330576040517f08c379a000000000000000000000000000000000000000000000000000000000815260040161032790610edf565b60405180910390fd5b600061033a61010e565b1161037a576040517f08c379a000000000000000000000000000000000000000000000000000000000815260040161037190610f4b565b60405180910390fd5b60008060009054906101000a900473ffffffffffffffffffffffffffffffffffffffff1673ffffffffffffffffffffffffffffffffffffffff166103bc61010e565b6040516103c890610f9c565b60006040518083038185875af1925050503d8060008114610405576040519150601f19603f3d011682016040523d82523d6000602084013e61040a565b606091505b505090508061044e576040517f08c379a000000000000000000000000000000000000000000000000000000000815260040161044590610ffd565b60405180910390fd5b50565b60606001805480602002602001604051908101604052809291908181526020016000905b8282101561063557838290600052602060002090600502016040518060a00160405290816000820160009054906101000a900473ffffffffffffffffffffffffffffffffffffffff1673ffffffffffffffffffffffffffffffffffffffff1673ffffffffffffffffffffffffffffffffffffffff1681526020016001820154815260200160028201805461050890610b58565b80601f016020809104026020016040519081016040528092919081815260200182805461053490610b58565b80156105815780601f1061055657610100808354040283529160200191610581565b820191906000526020600020905b81548152906001019060200180831161056457829003601f168201915b5050505050815260200160038201805461059a90610b58565b80601f01602080910402602001604051908101604052809291908181526020018280546105c690610b58565b80156106135780601f106105e857610100808354040283529160200191610613565b820191906000526020600020905b8154815290600101906020018083116105f657829003601f168201915b5050505050815260200160048201548152505081526020019060010190610475565b50505050905090565b600073ffffffffffffffffffffffffffffffffffffffff82169050919050565b60006106698261063e565b9050919050565b6106798161065e565b82525050565b6000819050919050565b6106928161067f565b82525050565b60006040820190506106ad6000830185610670565b6106ba6020830184610689565b9392505050565b60006020820190506106d66000830184610689565b92915050565b6000604051905090565b600080fd5b600080fd5b600080fd5b600080fd5b6000601f19601f8301169050919050565b7f4e487b7100000000000000000000000000000000000000000000000000000000600052604160045260246000fd5b610743826106fa565b810181811067ffffffffffffffff821117156107625761076161070b565b5b80604052505050565b60006107756106dc565b9050610781828261073a565b919050565b600067ffffffffffffffff8211156107a1576107a061070b565b5b6107aa826106fa565b9050602081019050919050565b82818337600083830152505050565b60006107d96107d484610786565b61076b565b9050828152602081018484840111156107f5576107f46106f5565b5b6108008482856107b7565b509392505050565b600082601f83011261081d5761081c6106f0565b5b813561082d8482602086016107c6565b91505092915050565b6000806040838503121561084d5761084c6106e6565b5b600083013567ffffffffffffffff81111561086b5761086a6106eb565b5b61087785828601610808565b925050602083013567ffffffffffffffff811115610898576108976106eb565b5b6108a485828601610808565b9150509250929050565b600081519050919050565b600082825260208201905092915050565b6000819050602082019050919050565b6108e38161065e565b82525050565b6108f28161067f565b82525050565b600081519050919050565b600082825260208201905092915050565b60005b83811015610932578082015181840152602081019050610917565b60008484015250505050565b6000610949826108f8565b6109538185610903565b9350610963818560208601610914565b61096c816106fa565b840191505092915050565b600060a08301600083015161098f60008601826108da565b5060208301516109a260208601826108e9565b50604083015184820360408601526109ba828261093e565b915050606083015184820360608601526109d4828261093e565b91505060808301516109e960808601826108e9565b508091505092915050565b6000610a008383610977565b905092915050565b6000602082019050919050565b6000610a20826108ae565b610a2a81856108b9565b935083602082028501610a3c856108ca565b8060005b85811015610a785784840389528151610a5985826109f4565b9450610a6483610a08565b925060208a01995050600181019050610a40565b50829750879550505050505092915050565b60006020820190508181036000830152610aa48184610a15565b905092915050565b600082825260208201905092915050565b7f63616e27742062757920636f6666656520666f72206672656521000000000000600082015250565b6000610af3601a83610aac565b9150610afe82610abd565b602082019050919050565b60006020820190508181036000830152610b2281610ae6565b9050919050565b7f4e487b7100000000000000000000000000000000000000000000000000000000600052602260045260246000fd5b60006002820490506001821680610b7057607f821691505b602082108103610b8357610b82610b29565b5b50919050565b60008190508160005260206000209050919050565b60006020601f8301049050919050565b600082821b905092915050565b600060088302610beb7fffffffffffffffffffffffffffffffffffffffffffffffffffffffffffffffff82610bae565b610bf58683610bae565b95508019841693508086168417925050509392505050565b6000819050919050565b6000610c32610c2d610c288461067f565b610c0d565b61067f565b9050919050565b6000819050919050565b610c4c83610c17565b610c60610c5882610c39565b848454610bbb565b825550505050565b600090565b610c75610c68565b610c80818484610c43565b505050565b5b81811015610ca457610c99600082610c6d565b600181019050610c86565b5050565b601f821115610ce957610cba81610b89565b610cc384610b9e565b81016020851015610cd2578190505b610ce6610cde85610b9e565b830182610c85565b50505b505050565b600082821c905092915050565b6000610d0c60001984600802610cee565b1980831691505092915050565b6000610d258383610cfb565b9150826002028217905092915050565b610d3e826108f8565b67ffffffffffffffff811115610d5757610d5661070b565b5b610d618254610b58565b610d6c828285610ca8565b600060209050601f831160018114610d9f5760008415610d8d578287015190505b610d978582610d19565b865550610dff565b601f198416610dad86610b89565b60005b82811015610dd557848901518255600182019150602085019450602081019050610db0565b86831015610df25784890151610dee601f891682610cfb565b8355505b6001600288020188555050505b505050505050565b6000610e12826108f8565b610e1c8185610aac565b9350610e2c818560208601610914565b610e35816106fa565b840191505092915050565b6000608082019050610e556000830187610689565b8181036020830152610e678186610e07565b90508181036040830152610e7b8185610e07565b9050610e8a6060830184610689565b95945050505050565b7f4e6f74206f776e65720000000000000000000000000000000000000000000000600082015250565b6000610ec9600983610aac565b9150610ed482610e93565b602082019050919050565b60006020820190508181036000830152610ef881610ebc565b9050919050565b7f4e6f206574686572000000000000000000000000000000000000000000000000600082015250565b6000610f35600883610aac565b9150610f4082610eff565b602082019050919050565b60006020820190508181036000830152610f6481610f28565b9050919050565b600081905092915050565b50565b6000610f86600083610f6b565b9150610f9182610f76565b600082019050919050565b6000610fa782610f79565b9150819050919050565b7f4661696c656420746f2073656e64204574686572000000000000000000000000600082015250565b6000610fe7601483610aac565b9150610ff282610fb1565b602082019050919050565b6000602082019050818103600083015261101681610fda565b905091905056fea26469706673582212204e3aadfc779da5f884403bbdde51954db165a5d8318c4104ac5e80c438962fec64736f6c63430008120033",
  "linkReferences": {},
  "deployedLinkReferences": {}
}